{
  "contractName": "RKToken",
  "abi": [
    {
      "inputs": [],
      "name": "totalSupply",
      "outputs": [
        {
          "internalType": "uint256",
          "name": "",
          "type": "uint256"
        }
      ],
      "stateMutability": "view",
      "type": "function",
      "constant": true
    },
    {
      "inputs": [],
      "name": "RKtoken",
      "outputs": [],
      "stateMutability": "nonpayable",
      "type": "function"
    }
  ],
  "bytecode": "0x608060405234801561001057600080fd5b5060d18061001f6000396000f3fe6080604052348015600f57600080fd5b506004361060325760003560e01c806318160ddd1460375780634fc7dd6d146051575b600080fd5b603d6059565b604051604891906082565b60405180910390f35b6057605f565b005b60005481565b620f4240600081905550565b6000819050919050565b607c81606b565b82525050565b6000602082019050609560008301846075565b9291505056fea2646970667358221220103a0cacf24291a65a67f3b637db3ef4748fc998595102317af379266eb9391b64736f6c634300080c0033",
  "immutableReferences": {},
  "source": "// SPDX-License-Identifier: MIT\r\npragma solidity >=0.4.22 <0.9.0;\r\n\r\ncontract RKToken {\r\n\r\n    uint256 public totalSupply;\r\n\r\n    function RKtoken () public {\r\n        totalSupply = 1000000 ;\r\n    }\r\n}",
  "sourcePath": "C:\\Users\\Rohit Patel\\Downloads\\SolidityProg\\rk_token\\contracts\\RKToken.sol",
  "compiler": {
    "name": "solc",
    "version": "0.8.12+commit.f00d7308.Emscripten.clang"
  },
  "schemaVersion": "3.4.6",
  "updatedAt": "2022-05-19T06:08:47.243Z",
  "networkType": "ethereum",
  "devdoc": {
    "kind": "dev",
    "methods": {},
    "version": 1
  },
  "userdoc": {
    "kind": "user",
    "methods": {},
    "version": 1
  }
}